{
  "_format": "hh-sol-artifact-1",
  "contractName": "RabbitHole",
  "sourceName": "contracts/RabbitHole.sol",
  "abi": [
    {
      "inputs": [],
      "stateMutability": "nonpayable",
      "type": "constructor"
    },
    {
      "inputs": [],
      "name": "getPlayers",
      "outputs": [
        {
          "components": [
            {
              "components": [
                {
                  "internalType": "address",
                  "name": "player",
                  "type": "address"
                },
                {
                  "internalType": "uint256",
                  "name": "fuel",
                  "type": "uint256"
                },
                {
                  "internalType": "uint256",
                  "name": "speed",
                  "type": "uint256"
                },
                {
                  "internalType": "bool",
                  "name": "alive",
                  "type": "bool"
                }
              ],
              "internalType": "struct RabbitHole.Player[]",
              "name": "players",
              "type": "tuple[]"
            },
            {
              "internalType": "uint256",
              "name": "speed",
              "type": "uint256"
            }
          ],
          "internalType": "struct RabbitHole.GameData",
          "name": "",
          "type": "tuple"
        }
      ],
      "stateMutability": "view",
      "type": "function"
    },
    {
      "inputs": [],
      "name": "random",
      "outputs": [
        {
          "internalType": "uint256",
          "name": "",
          "type": "uint256"
        }
      ],
      "stateMutability": "view",
      "type": "function"
    },
    {
      "inputs": [
        {
          "internalType": "uint256",
          "name": "fuel",
          "type": "uint256"
        },
        {
          "internalType": "bool",
          "name": "alive",
          "type": "bool"
        }
      ],
      "name": "setPlayerData",
      "outputs": [],
      "stateMutability": "nonpayable",
      "type": "function"
    },
    {
      "inputs": [
        {
          "internalType": "uint256",
          "name": "speed",
          "type": "uint256"
        }
      ],
      "name": "setPlayerSpeed",
      "outputs": [],
      "stateMutability": "nonpayable",
      "type": "function"
    }
  ],
  "bytecode": "0x6080604052600260005534801561001557600080fd5b50603260016000808152602001908152602001600020600101819055506101f46001600080815260200190815260200160002060020181905550600180600080815260200190815260200160002060030160006101000a81548160ff021916908315150217905550603260016000600181526020019081526020016000206001018190555061025860016000600181526020019081526020016000206002018190555060018060006001815260200190815260200160002060030160006101000a81548160ff0219169083151502179055506109be806100f66000396000f3fe608060405234801561001057600080fd5b506004361061004c5760003560e01c80633ba376c4146100515780635ec01e4d1461006d57806373965f731461008b5780638b5b9ccc146100a7575b600080fd5b61006b60048036038101906100669190610552565b6100c5565b005b610075610228565b604051610082919061058e565b60405180910390f35b6100a560048036038101906100a091906105e1565b61027e565b005b6100af610350565b6040516100bc91906107c1565b60405180910390f35b60005b600054811015610149573373ffffffffffffffffffffffffffffffffffffffff166001600083815260200190815260200160002060000160009054906101000a900473ffffffffffffffffffffffffffffffffffffffff1673ffffffffffffffffffffffffffffffffffffffff1603156101495780806001019150506100c8565b816001600083815260200190815260200160002060020181905550336001600083815260200190815260200160002060000160006101000a81548173ffffffffffffffffffffffffffffffffffffffff021916908373ffffffffffffffffffffffffffffffffffffffff16021790555060005481036102245760326001600083815260200190815260200160002060010181905550600180600083815260200190815260200160002060030160006101000a81548160ff02191690831515021790555060008081548092919061021e90610812565b91905055505b5050565b60008061012c4260405160200161023f919061087b565b6040516020818303038152906040528051906020012060001c61026291906108c5565b905060006101f48261027491906108f6565b9050809250505090565b60005b600054811015610302573373ffffffffffffffffffffffffffffffffffffffff166001600083815260200190815260200160002060000160009054906101000a900473ffffffffffffffffffffffffffffffffffffffff1673ffffffffffffffffffffffffffffffffffffffff160315610302578080600101915050610281565b826001600083815260200190815260200160002060010181905550816001600083815260200190815260200160002060030160006101000a81548160ff021916908315150217905550505050565b6103586104bd565b6000805467ffffffffffffffff8111156103755761037461092a565b5b6040519080825280602002602001820160405280156103ae57816020015b61039b6104d7565b8152602001906001900390816103935790505b50905060005b60005481101561048c57600160008281526020019081526020016000206040518060800160405290816000820160009054906101000a900473ffffffffffffffffffffffffffffffffffffffff1673ffffffffffffffffffffffffffffffffffffffff1673ffffffffffffffffffffffffffffffffffffffff16815260200160018201548152602001600282015481526020016003820160009054906101000a900460ff16151515158152505082828151811061047457610473610959565b5b602002602001018190525080806001019150506103b4565b506000610497610228565b90506104a16104bd565b8281600001819052508181602001818152505080935050505090565b604051806040016040528060608152602001600081525090565b6040518060800160405280600073ffffffffffffffffffffffffffffffffffffffff16815260200160008152602001600081526020016000151581525090565b600080fd5b6000819050919050565b61052f8161051c565b811461053a57600080fd5b50565b60008135905061054c81610526565b92915050565b60006020828403121561056857610567610517565b5b60006105768482850161053d565b91505092915050565b6105888161051c565b82525050565b60006020820190506105a3600083018461057f565b92915050565b60008115159050919050565b6105be816105a9565b81146105c957600080fd5b50565b6000813590506105db816105b5565b92915050565b600080604083850312156105f8576105f7610517565b5b60006106068582860161053d565b9250506020610617858286016105cc565b9150509250929050565b600081519050919050565b600082825260208201905092915050565b6000819050602082019050919050565b600073ffffffffffffffffffffffffffffffffffffffff82169050919050565b60006106788261064d565b9050919050565b6106888161066d565b82525050565b6106978161051c565b82525050565b6106a6816105a9565b82525050565b6080820160008201516106c2600085018261067f565b5060208201516106d5602085018261068e565b5060408201516106e8604085018261068e565b5060608201516106fb606085018261069d565b50505050565b600061070d83836106ac565b60808301905092915050565b6000602082019050919050565b600061073182610621565b61073b818561062c565b93506107468361063d565b8060005b8381101561077757815161075e8882610701565b975061076983610719565b92505060018101905061074a565b5085935050505092915050565b600060408301600083015184820360008601526107a18282610726565b91505060208301516107b6602086018261068e565b508091505092915050565b600060208201905081810360008301526107db8184610784565b905092915050565b7f4e487b7100000000000000000000000000000000000000000000000000000000600052601160045260246000fd5b600061081d8261051c565b91507fffffffffffffffffffffffffffffffffffffffffffffffffffffffffffffffff820361084f5761084e6107e3565b5b600182019050919050565b6000819050919050565b6108756108708261051c565b61085a565b82525050565b60006108878284610864565b60208201915081905092915050565b7f4e487b7100000000000000000000000000000000000000000000000000000000600052601260045260246000fd5b60006108d08261051c565b91506108db8361051c565b9250826108eb576108ea610896565b5b828206905092915050565b60006109018261051c565b915061090c8361051c565b9250828201905080821115610924576109236107e3565b5b92915050565b7f4e487b7100000000000000000000000000000000000000000000000000000000600052604160045260246000fd5b7f4e487b7100000000000000000000000000000000000000000000000000000000600052603260045260246000fdfea2646970667358221220bd13f99c594fddb4a1cb0c429aced214b50d6c7069cf9412844c90618ef2f05364736f6c63430008180033",
  "linkReferences": {},
  "deployedLinkReferences": {}
}