{
  "_format": "hh-sol-artifact-1",
  "contractName": "RabbitHole",
  "sourceName": "contracts/RabbitHole.sol",
  "abi": [
    {
      "inputs": [
        {
          "internalType": "address",
          "name": "initialAddress",
          "type": "address"
        }
      ],
      "stateMutability": "nonpayable",
      "type": "constructor"
    },
    {
      "inputs": [
        {
          "internalType": "address",
          "name": "owner",
          "type": "address"
        }
      ],
      "name": "OwnableInvalidOwner",
      "type": "error"
    },
    {
      "inputs": [
        {
          "internalType": "address",
          "name": "account",
          "type": "address"
        }
      ],
      "name": "OwnableUnauthorizedAccount",
      "type": "error"
    },
    {
      "anonymous": false,
      "inputs": [
        {
          "indexed": true,
          "internalType": "address",
          "name": "previousOwner",
          "type": "address"
        },
        {
          "indexed": true,
          "internalType": "address",
          "name": "newOwner",
          "type": "address"
        }
      ],
      "name": "OwnershipTransferred",
      "type": "event"
    },
    {
      "inputs": [],
      "name": "getPlayers",
      "outputs": [
        {
          "components": [
            {
              "internalType": "address",
              "name": "player",
              "type": "address"
            },
            {
              "internalType": "uint256",
              "name": "fuel",
              "type": "uint256"
            },
            {
              "internalType": "uint256",
              "name": "speed",
              "type": "uint256"
            },
            {
              "internalType": "bool",
              "name": "alive",
              "type": "bool"
            }
          ],
          "internalType": "struct RabbitHole.Player[]",
          "name": "",
          "type": "tuple[]"
        }
      ],
      "stateMutability": "view",
      "type": "function"
    },
    {
      "inputs": [],
      "name": "owner",
      "outputs": [
        {
          "internalType": "address",
          "name": "",
          "type": "address"
        }
      ],
      "stateMutability": "view",
      "type": "function"
    },
    {
      "inputs": [],
      "name": "random",
      "outputs": [
        {
          "internalType": "uint256",
          "name": "",
          "type": "uint256"
        }
      ],
      "stateMutability": "view",
      "type": "function"
    },
    {
      "inputs": [],
      "name": "renounceOwnership",
      "outputs": [],
      "stateMutability": "nonpayable",
      "type": "function"
    },
    {
      "inputs": [
        {
          "internalType": "bool",
          "name": "alive",
          "type": "bool"
        }
      ],
      "name": "setPlayerAlive",
      "outputs": [],
      "stateMutability": "nonpayable",
      "type": "function"
    },
    {
      "inputs": [
        {
          "internalType": "uint256",
          "name": "fuel",
          "type": "uint256"
        }
      ],
      "name": "setPlayerData",
      "outputs": [],
      "stateMutability": "nonpayable",
      "type": "function"
    },
    {
      "inputs": [
        {
          "internalType": "uint256",
          "name": "speed",
          "type": "uint256"
        }
      ],
      "name": "setPlayerSpeed",
      "outputs": [],
      "stateMutability": "nonpayable",
      "type": "function"
    },
    {
      "inputs": [
        {
          "internalType": "address",
          "name": "newOwner",
          "type": "address"
        }
      ],
      "name": "transferOwnership",
      "outputs": [],
      "stateMutability": "nonpayable",
      "type": "function"
    }
  ],
  "bytecode": "0x608060405260026001553480156200001657600080fd5b50604051620012033803806200120383398181016040528101906200003c9190620003c5565b80600073ffffffffffffffffffffffffffffffffffffffff168173ffffffffffffffffffffffffffffffffffffffff1603620000b25760006040517f1e4fbdf7000000000000000000000000000000000000000000000000000000008152600401620000a9919062000408565b60405180910390fd5b620000c3816200029760201b60201c565b5060026040518060800160405280600073ffffffffffffffffffffffffffffffffffffffff168152602001603281526020016101f4815260200160011515815250908060018154018082558091505060019003906000526020600020906004020160009091909190915060008201518160000160006101000a81548173ffffffffffffffffffffffffffffffffffffffff021916908373ffffffffffffffffffffffffffffffffffffffff160217905550602082015181600101556040820151816002015560608201518160030160006101000a81548160ff021916908315150217905550505060026040518060800160405280600073ffffffffffffffffffffffffffffffffffffffff16815260200160328152602001610258815260200160011515815250908060018154018082558091505060019003906000526020600020906004020160009091909190915060008201518160000160006101000a81548173ffffffffffffffffffffffffffffffffffffffff021916908373ffffffffffffffffffffffffffffffffffffffff160217905550602082015181600101556040820151816002015560608201518160030160006101000a81548160ff02191690831515021790555050505062000425565b60008060009054906101000a900473ffffffffffffffffffffffffffffffffffffffff169050816000806101000a81548173ffffffffffffffffffffffffffffffffffffffff021916908373ffffffffffffffffffffffffffffffffffffffff1602179055508173ffffffffffffffffffffffffffffffffffffffff168173ffffffffffffffffffffffffffffffffffffffff167f8be0079c531659141344cd1fd0a4f28419497f9722a3daafe3b4186f6b6457e060405160405180910390a35050565b600080fd5b600073ffffffffffffffffffffffffffffffffffffffff82169050919050565b60006200038d8262000360565b9050919050565b6200039f8162000380565b8114620003ab57600080fd5b50565b600081519050620003bf8162000394565b92915050565b600060208284031215620003de57620003dd6200035b565b5b6000620003ee84828501620003ae565b91505092915050565b620004028162000380565b82525050565b60006020820190506200041f6000830184620003f7565b92915050565b610dce80620004356000396000f3fe608060405234801561001057600080fd5b50600436106100885760003560e01c80638b5b9ccc1161005b5780638b5b9ccc146100ed5780638da5cb5b1461010b578063dcdd338514610129578063f2fde38b1461014557610088565b80633ba376c41461008d5780635ec01e4d146100a9578063715018a6146100c75780637a6e6297146100d1575b600080fd5b6100a760048036038101906100a2919061095e565b610161565b005b6100b1610323565b6040516100be919061099a565b60405180910390f35b6100cf610379565b005b6100eb60048036038101906100e691906109ed565b61038d565b005b6100f561046f565b6040516101029190610b7d565b60405180910390f35b610113610553565b6040516101209190610bae565b60405180910390f35b610143600480360381019061013e919061095e565b61057c565b005b61015f600480360381019061015a9190610bf5565b61074a565b005b60005b600154811015610223573373ffffffffffffffffffffffffffffffffffffffff166002828154811061019957610198610c22565b5b906000526020600020906004020160000160009054906101000a900473ffffffffffffffffffffffffffffffffffffffff1673ffffffffffffffffffffffffffffffffffffffff16036102165781600282815481106101fb576101fa610c22565b5b90600052602060002090600402016002018190555050610320565b8080600101915050610164565b6001600081548092919061023690610c80565b9190505550600260405180608001604052803373ffffffffffffffffffffffffffffffffffffffff1681526020016032815260200184815260200160011515815250908060018154018082558091505060019003906000526020600020906004020160009091909190915060008201518160000160006101000a81548173ffffffffffffffffffffffffffffffffffffffff021916908373ffffffffffffffffffffffffffffffffffffffff160217905550602082015181600101556040820151816002015560608201518160030160006101000a81548160ff0219169083151502179055505050505b50565b60008061012c4260405160200161033a9190610ce9565b6040516020818303038152906040528051906020012060001c61035d9190610d33565b905060006101f48261036f9190610d64565b9050809250505090565b6103816107d0565b61038b6000610857565b565b6103956107d0565b60005b60015481101561046a573373ffffffffffffffffffffffffffffffffffffffff16600282815481106103cd576103cc610c22565b5b906000526020600020906004020160000160009054906101000a900473ffffffffffffffffffffffffffffffffffffffff1673ffffffffffffffffffffffffffffffffffffffff160361045d57816002828154811061042f5761042e610c22565b5b906000526020600020906004020160030160006101000a81548160ff0219169083151502179055505061046c565b8080600101915050610398565b505b50565b60606002805480602002602001604051908101604052809291908181526020016000905b8282101561054a57838290600052602060002090600402016040518060800160405290816000820160009054906101000a900473ffffffffffffffffffffffffffffffffffffffff1673ffffffffffffffffffffffffffffffffffffffff1673ffffffffffffffffffffffffffffffffffffffff16815260200160018201548152602001600282015481526020016003820160009054906101000a900460ff16151515158152505081526020019060010190610493565b50505050905090565b60008060009054906101000a900473ffffffffffffffffffffffffffffffffffffffff16905090565b600080600091505b600154821015610744573373ffffffffffffffffffffffffffffffffffffffff16600283815481106105b9576105b8610c22565b5b906000526020600020906004020160000160009054906101000a900473ffffffffffffffffffffffffffffffffffffffff1673ffffffffffffffffffffffffffffffffffffffff160361073757826002838154811061061b5761061a610c22565b5b906000526020600020906004020160010181905550600083036106775760006002838154811061064e5761064d610c22565b5b906000526020600020906004020160030160006101000a81548160ff0219169083151502179055505b600090505b6001548110156106f8576002818154811061069a57610699610c22565b5b906000526020600020906004020160020154600283815481106106c0576106bf610c22565b5b9060005260206000209060040201600201541180156106df5750818114155b156106eb575050610747565b808060010191505061067c565b60006002838154811061070e5761070d610c22565b5b906000526020600020906004020160030160006101000a81548160ff0219169083151502179055505b8180600101925050610584565b50505b50565b6107526107d0565b600073ffffffffffffffffffffffffffffffffffffffff168173ffffffffffffffffffffffffffffffffffffffff16036107c45760006040517f1e4fbdf70000000000000000000000000000000000000000000000000000000081526004016107bb9190610bae565b60405180910390fd5b6107cd81610857565b50565b6107d861091b565b73ffffffffffffffffffffffffffffffffffffffff166107f6610553565b73ffffffffffffffffffffffffffffffffffffffff16146108555761081961091b565b6040517f118cdaa700000000000000000000000000000000000000000000000000000000815260040161084c9190610bae565b60405180910390fd5b565b60008060009054906101000a900473ffffffffffffffffffffffffffffffffffffffff169050816000806101000a81548173ffffffffffffffffffffffffffffffffffffffff021916908373ffffffffffffffffffffffffffffffffffffffff1602179055508173ffffffffffffffffffffffffffffffffffffffff168173ffffffffffffffffffffffffffffffffffffffff167f8be0079c531659141344cd1fd0a4f28419497f9722a3daafe3b4186f6b6457e060405160405180910390a35050565b600033905090565b600080fd5b6000819050919050565b61093b81610928565b811461094657600080fd5b50565b60008135905061095881610932565b92915050565b60006020828403121561097457610973610923565b5b600061098284828501610949565b91505092915050565b61099481610928565b82525050565b60006020820190506109af600083018461098b565b92915050565b60008115159050919050565b6109ca816109b5565b81146109d557600080fd5b50565b6000813590506109e7816109c1565b92915050565b600060208284031215610a0357610a02610923565b5b6000610a11848285016109d8565b91505092915050565b600081519050919050565b600082825260208201905092915050565b6000819050602082019050919050565b600073ffffffffffffffffffffffffffffffffffffffff82169050919050565b6000610a7182610a46565b9050919050565b610a8181610a66565b82525050565b610a9081610928565b82525050565b610a9f816109b5565b82525050565b608082016000820151610abb6000850182610a78565b506020820151610ace6020850182610a87565b506040820151610ae16040850182610a87565b506060820151610af46060850182610a96565b50505050565b6000610b068383610aa5565b60808301905092915050565b6000602082019050919050565b6000610b2a82610a1a565b610b348185610a25565b9350610b3f83610a36565b8060005b83811015610b70578151610b578882610afa565b9750610b6283610b12565b925050600181019050610b43565b5085935050505092915050565b60006020820190508181036000830152610b978184610b1f565b905092915050565b610ba881610a66565b82525050565b6000602082019050610bc36000830184610b9f565b92915050565b610bd281610a66565b8114610bdd57600080fd5b50565b600081359050610bef81610bc9565b92915050565b600060208284031215610c0b57610c0a610923565b5b6000610c1984828501610be0565b91505092915050565b7f4e487b7100000000000000000000000000000000000000000000000000000000600052603260045260246000fd5b7f4e487b7100000000000000000000000000000000000000000000000000000000600052601160045260246000fd5b6000610c8b82610928565b91507fffffffffffffffffffffffffffffffffffffffffffffffffffffffffffffffff8203610cbd57610cbc610c51565b5b600182019050919050565b6000819050919050565b610ce3610cde82610928565b610cc8565b82525050565b6000610cf58284610cd2565b60208201915081905092915050565b7f4e487b7100000000000000000000000000000000000000000000000000000000600052601260045260246000fd5b6000610d3e82610928565b9150610d4983610928565b925082610d5957610d58610d04565b5b828206905092915050565b6000610d6f82610928565b9150610d7a83610928565b9250828201905080821115610d9257610d91610c51565b5b9291505056fea2646970667358221220d224adda772f2b104ebab12a38d708678997b25ba0ce03c95d9f6b6ec67981a064736f6c63430008180033",
  "linkReferences": {},
  "deployedLinkReferences": {}
}