{
  "_format": "hh-sol-artifact-1",
  "contractName": "RabbitHole",
  "sourceName": "contracts/RabbitHole.sol",
  "abi": [
    {
      "inputs": [],
      "stateMutability": "nonpayable",
      "type": "constructor"
    },
    {
      "inputs": [],
      "name": "getPlayers",
      "outputs": [
        {
          "components": [
            {
              "components": [
                {
                  "internalType": "address",
                  "name": "player",
                  "type": "address"
                },
                {
                  "internalType": "uint256",
                  "name": "fuel",
                  "type": "uint256"
                },
                {
                  "internalType": "uint256",
                  "name": "speed",
                  "type": "uint256"
                }
              ],
              "internalType": "struct RabbitHole.Player[]",
              "name": "players",
              "type": "tuple[]"
            },
            {
              "internalType": "uint256",
              "name": "speed",
              "type": "uint256"
            }
          ],
          "internalType": "struct RabbitHole.GameData",
          "name": "",
          "type": "tuple"
        }
      ],
      "stateMutability": "view",
      "type": "function"
    },
    {
      "inputs": [],
      "name": "random",
      "outputs": [
        {
          "internalType": "uint256",
          "name": "",
          "type": "uint256"
        }
      ],
      "stateMutability": "view",
      "type": "function"
    },
    {
      "inputs": [
        {
          "internalType": "uint256",
          "name": "fuel",
          "type": "uint256"
        }
      ],
      "name": "setPlayerData",
      "outputs": [],
      "stateMutability": "nonpayable",
      "type": "function"
    },
    {
      "inputs": [
        {
          "internalType": "uint256",
          "name": "speed",
          "type": "uint256"
        }
      ],
      "name": "setPlayerSpeed",
      "outputs": [],
      "stateMutability": "nonpayable",
      "type": "function"
    }
  ],
  "bytecode": "0x6080604052600260005534801561001557600080fd5b50603260016000808152602001908152602001600020600101819055506101f4600160008081526020019081526020016000206002018190555060326001600060018152602001908152602001600020600101819055506102586001600060018152602001908152602001600020600201819055506108a3806100996000396000f3fe608060405234801561001057600080fd5b506004361061004c5760003560e01c80633ba376c4146100515780635ec01e4d1461006d5780638b5b9ccc1461008b578063dcdd3385146100a9575b600080fd5b61006b600480360381019061006691906104d1565b6100c5565b005b6100756101fa565b604051610082919061050d565b60405180910390f35b610093610250565b6040516100a091906106a6565b60405180910390f35b6100c360048036038101906100be91906104d1565b6103a2565b005b60005b600054811015610149573373ffffffffffffffffffffffffffffffffffffffff166001600083815260200190815260200160002060000160009054906101000a900473ffffffffffffffffffffffffffffffffffffffff1673ffffffffffffffffffffffffffffffffffffffff1603156101495780806001019150506100c8565b816001600083815260200190815260200160002060020181905550336001600083815260200190815260200160002060000160006101000a81548173ffffffffffffffffffffffffffffffffffffffff021916908373ffffffffffffffffffffffffffffffffffffffff16021790555060005481036101f657603260016000838152602001908152602001600020600101819055506000808154809291906101f0906106f7565b91905055505b5050565b60008061012c426040516020016102119190610760565b6040516020818303038152906040528051906020012060001c61023491906107aa565b905060006101f48261024691906107db565b9050809250505090565b610258610445565b6000805467ffffffffffffffff8111156102755761027461080f565b5b6040519080825280602002602001820160405280156102ae57816020015b61029b61045f565b8152602001906001900390816102935790505b50905060005b60005481101561037157600160008281526020019081526020016000206040518060600160405290816000820160009054906101000a900473ffffffffffffffffffffffffffffffffffffffff1673ffffffffffffffffffffffffffffffffffffffff1673ffffffffffffffffffffffffffffffffffffffff168152602001600182015481526020016002820154815250508282815181106103595761035861083e565b5b602002602001018190525080806001019150506102b4565b50600061037c6101fa565b9050610386610445565b8281600001819052508181602001818152505080935050505090565b60005b600054811015610426573373ffffffffffffffffffffffffffffffffffffffff166001600083815260200190815260200160002060000160009054906101000a900473ffffffffffffffffffffffffffffffffffffffff1673ffffffffffffffffffffffffffffffffffffffff1603156104265780806001019150506103a5565b8160016000838152602001908152602001600020600101819055505050565b604051806040016040528060608152602001600081525090565b6040518060600160405280600073ffffffffffffffffffffffffffffffffffffffff16815260200160008152602001600081525090565b600080fd5b6000819050919050565b6104ae8161049b565b81146104b957600080fd5b50565b6000813590506104cb816104a5565b92915050565b6000602082840312156104e7576104e6610496565b5b60006104f5848285016104bc565b91505092915050565b6105078161049b565b82525050565b600060208201905061052260008301846104fe565b92915050565b600081519050919050565b600082825260208201905092915050565b6000819050602082019050919050565b600073ffffffffffffffffffffffffffffffffffffffff82169050919050565b600061057f82610554565b9050919050565b61058f81610574565b82525050565b61059e8161049b565b82525050565b6060820160008201516105ba6000850182610586565b5060208201516105cd6020850182610595565b5060408201516105e06040850182610595565b50505050565b60006105f283836105a4565b60608301905092915050565b6000602082019050919050565b600061061682610528565b6106208185610533565b935061062b83610544565b8060005b8381101561065c57815161064388826105e6565b975061064e836105fe565b92505060018101905061062f565b5085935050505092915050565b60006040830160008301518482036000860152610686828261060b565b915050602083015161069b6020860182610595565b508091505092915050565b600060208201905081810360008301526106c08184610669565b905092915050565b7f4e487b7100000000000000000000000000000000000000000000000000000000600052601160045260246000fd5b60006107028261049b565b91507fffffffffffffffffffffffffffffffffffffffffffffffffffffffffffffffff8203610734576107336106c8565b5b600182019050919050565b6000819050919050565b61075a6107558261049b565b61073f565b82525050565b600061076c8284610749565b60208201915081905092915050565b7f4e487b7100000000000000000000000000000000000000000000000000000000600052601260045260246000fd5b60006107b58261049b565b91506107c08361049b565b9250826107d0576107cf61077b565b5b828206905092915050565b60006107e68261049b565b91506107f18361049b565b9250828201905080821115610809576108086106c8565b5b92915050565b7f4e487b7100000000000000000000000000000000000000000000000000000000600052604160045260246000fd5b7f4e487b7100000000000000000000000000000000000000000000000000000000600052603260045260246000fdfea26469706673582212208a097d3984e120011e81d7a5d96edd79d06534e656747d250c8ec97d21bd8d3f64736f6c63430008180033",
  "linkReferences": {},
  "deployedLinkReferences": {}
}