{
  "_format": "hh-sol-artifact-1",
  "contractName": "RabbitHole",
  "sourceName": "contracts/RabbitHole.sol",
  "abi": [
    {
      "inputs": [],
      "stateMutability": "nonpayable",
      "type": "constructor"
    },
    {
      "inputs": [],
      "name": "getPlayers",
      "outputs": [
        {
          "components": [
            {
              "components": [
                {
                  "internalType": "address",
                  "name": "player",
                  "type": "address"
                },
                {
                  "internalType": "uint256",
                  "name": "fuel",
                  "type": "uint256"
                },
                {
                  "internalType": "uint256",
                  "name": "speed",
                  "type": "uint256"
                }
              ],
              "internalType": "struct RabbitHole.Player[]",
              "name": "players",
              "type": "tuple[]"
            },
            {
              "internalType": "uint256",
              "name": "speed",
              "type": "uint256"
            }
          ],
          "internalType": "struct RabbitHole.GameData",
          "name": "",
          "type": "tuple"
        }
      ],
      "stateMutability": "view",
      "type": "function"
    },
    {
      "inputs": [],
      "name": "random",
      "outputs": [
        {
          "internalType": "uint256",
          "name": "",
          "type": "uint256"
        }
      ],
      "stateMutability": "view",
      "type": "function"
    },
    {
      "inputs": [
        {
          "internalType": "uint256",
          "name": "speed",
          "type": "uint256"
        }
      ],
      "name": "setPlayerSpeed",
      "outputs": [],
      "stateMutability": "nonpayable",
      "type": "function"
    }
  ],
  "bytecode": "0x6080604052600260005534801561001557600080fd5b50603260016000808152602001908152602001600020600101819055506101f4600160008081526020019081526020016000206002018190555060326001600060018152602001908152602001600020600101819055506102586001600060018152602001908152602001600020600201819055506107d9806100996000396000f3fe608060405234801561001057600080fd5b50600436106100415760003560e01c80633ba376c4146100465780635ec01e4d146100625780638b5b9ccc14610080575b600080fd5b610060600480360381019061005b9190610407565b61009e565b005b61006a6101d3565b6040516100779190610443565b60405180910390f35b610088610229565b60405161009591906105dc565b60405180910390f35b60005b600054811015610122573373ffffffffffffffffffffffffffffffffffffffff166001600083815260200190815260200160002060000160009054906101000a900473ffffffffffffffffffffffffffffffffffffffff1673ffffffffffffffffffffffffffffffffffffffff1603156101225780806001019150506100a1565b60326001600083815260200190815260200160002060010181905550816001600083815260200190815260200160002060020181905550336001600083815260200190815260200160002060000160006101000a81548173ffffffffffffffffffffffffffffffffffffffff021916908373ffffffffffffffffffffffffffffffffffffffff16021790555060005481036101cf576000808154809291906101c99061062d565b91905055505b5050565b60008061012c426040516020016101ea9190610696565b6040516020818303038152906040528051906020012060001c61020d91906106e0565b905060006101f48261021f9190610711565b9050809250505090565b61023161037b565b6000805467ffffffffffffffff81111561024e5761024d610745565b5b60405190808252806020026020018201604052801561028757816020015b610274610395565b81526020019060019003908161026c5790505b50905060005b60005481101561034a57600160008281526020019081526020016000206040518060600160405290816000820160009054906101000a900473ffffffffffffffffffffffffffffffffffffffff1673ffffffffffffffffffffffffffffffffffffffff1673ffffffffffffffffffffffffffffffffffffffff1681526020016001820154815260200160028201548152505082828151811061033257610331610774565b5b6020026020010181905250808060010191505061028d565b5060006103556101d3565b905061035f61037b565b8281600001819052508181602001818152505080935050505090565b604051806040016040528060608152602001600081525090565b6040518060600160405280600073ffffffffffffffffffffffffffffffffffffffff16815260200160008152602001600081525090565b600080fd5b6000819050919050565b6103e4816103d1565b81146103ef57600080fd5b50565b600081359050610401816103db565b92915050565b60006020828403121561041d5761041c6103cc565b5b600061042b848285016103f2565b91505092915050565b61043d816103d1565b82525050565b60006020820190506104586000830184610434565b92915050565b600081519050919050565b600082825260208201905092915050565b6000819050602082019050919050565b600073ffffffffffffffffffffffffffffffffffffffff82169050919050565b60006104b58261048a565b9050919050565b6104c5816104aa565b82525050565b6104d4816103d1565b82525050565b6060820160008201516104f060008501826104bc565b50602082015161050360208501826104cb565b50604082015161051660408501826104cb565b50505050565b600061052883836104da565b60608301905092915050565b6000602082019050919050565b600061054c8261045e565b6105568185610469565b93506105618361047a565b8060005b83811015610592578151610579888261051c565b975061058483610534565b925050600181019050610565565b5085935050505092915050565b600060408301600083015184820360008601526105bc8282610541565b91505060208301516105d160208601826104cb565b508091505092915050565b600060208201905081810360008301526105f6818461059f565b905092915050565b7f4e487b7100000000000000000000000000000000000000000000000000000000600052601160045260246000fd5b6000610638826103d1565b91507fffffffffffffffffffffffffffffffffffffffffffffffffffffffffffffffff820361066a576106696105fe565b5b600182019050919050565b6000819050919050565b61069061068b826103d1565b610675565b82525050565b60006106a2828461067f565b60208201915081905092915050565b7f4e487b7100000000000000000000000000000000000000000000000000000000600052601260045260246000fd5b60006106eb826103d1565b91506106f6836103d1565b925082610706576107056106b1565b5b828206905092915050565b600061071c826103d1565b9150610727836103d1565b925082820190508082111561073f5761073e6105fe565b5b92915050565b7f4e487b7100000000000000000000000000000000000000000000000000000000600052604160045260246000fd5b7f4e487b7100000000000000000000000000000000000000000000000000000000600052603260045260246000fdfea2646970667358221220a8adbcbd786ab85948800c0b45c6f97010ab401e569bfad8a5fb55c0381daf0664736f6c63430008180033",
  "linkReferences": {},
  "deployedLinkReferences": {}
}